{
  "_format": "hh-sol-artifact-1",
  "contractName": "ThreeLancer",
  "sourceName": "contracts/ThreeLancer.sol",
  "abi": [
    {
      "inputs": [],
      "stateMutability": "nonpayable",
      "type": "constructor"
    },
    {
      "inputs": [],
      "name": "allAvailableService",
      "outputs": [
        {
          "components": [
            {
              "internalType": "string",
              "name": "name",
              "type": "string"
            },
            {
              "internalType": "uint256",
              "name": "id",
              "type": "uint256"
            },
            {
              "internalType": "string",
              "name": "description",
              "type": "string"
            },
            {
              "internalType": "uint256",
              "name": "fee",
              "type": "uint256"
            },
            {
              "internalType": "uint256",
              "name": "intervalInDays",
              "type": "uint256"
            },
            {
              "internalType": "string",
              "name": "category",
              "type": "string"
            },
            {
              "internalType": "bool",
              "name": "available",
              "type": "bool"
            },
            {
              "internalType": "address[]",
              "name": "pastBuyers",
              "type": "address[]"
            }
          ],
          "internalType": "struct ThreeLancer.Service[]",
          "name": "",
          "type": "tuple[]"
        }
      ],
      "stateMutability": "view",
      "type": "function"
    },
    {
      "inputs": [],
      "name": "allService",
      "outputs": [
        {
          "components": [
            {
              "internalType": "string",
              "name": "name",
              "type": "string"
            },
            {
              "internalType": "uint256",
              "name": "id",
              "type": "uint256"
            },
            {
              "internalType": "string",
              "name": "description",
              "type": "string"
            },
            {
              "internalType": "uint256",
              "name": "fee",
              "type": "uint256"
            },
            {
              "internalType": "uint256",
              "name": "intervalInDays",
              "type": "uint256"
            },
            {
              "internalType": "string",
              "name": "category",
              "type": "string"
            },
            {
              "internalType": "bool",
              "name": "available",
              "type": "bool"
            },
            {
              "internalType": "address[]",
              "name": "pastBuyers",
              "type": "address[]"
            }
          ],
          "internalType": "struct ThreeLancer.Service[]",
          "name": "",
          "type": "tuple[]"
        }
      ],
      "stateMutability": "view",
      "type": "function"
    },
    {
      "inputs": [
        {
          "internalType": "uint256",
          "name": "_id",
          "type": "uint256"
        }
      ],
      "name": "buyAService",
      "outputs": [
        {
          "internalType": "uint256",
          "name": "",
          "type": "uint256"
        }
      ],
      "stateMutability": "payable",
      "type": "function"
    },
    {
      "inputs": [
        {
          "internalType": "uint256",
          "name": "_id",
          "type": "uint256"
        },
        {
          "internalType": "uint256",
          "name": "_fee",
          "type": "uint256"
        }
      ],
      "name": "changeFee",
      "outputs": [],
      "stateMutability": "nonpayable",
      "type": "function"
    },
    {
      "inputs": [
        {
          "internalType": "address",
          "name": "_address",
          "type": "address"
        }
      ],
      "name": "checkCurrency",
      "outputs": [
        {
          "internalType": "uint256",
          "name": "",
          "type": "uint256"
        }
      ],
      "stateMutability": "view",
      "type": "function"
    },
    {
      "inputs": [],
      "name": "clientAmount",
      "outputs": [
        {
          "internalType": "uint256",
          "name": "",
          "type": "uint256"
        }
      ],
      "stateMutability": "view",
      "type": "function"
    },
    {
      "inputs": [],
      "name": "createAnUserAccount",
      "outputs": [
        {
          "internalType": "uint256",
          "name": "",
          "type": "uint256"
        }
      ],
      "stateMutability": "nonpayable",
      "type": "function"
    },
    {
      "inputs": [
        {
          "components": [
            {
              "internalType": "string",
              "name": "name",
              "type": "string"
            },
            {
              "internalType": "uint256",
              "name": "id",
              "type": "uint256"
            },
            {
              "internalType": "string",
              "name": "description",
              "type": "string"
            },
            {
              "internalType": "uint256",
              "name": "fee",
              "type": "uint256"
            },
            {
              "internalType": "uint256",
              "name": "intervalInDays",
              "type": "uint256"
            },
            {
              "internalType": "string",
              "name": "category",
              "type": "string"
            },
            {
              "internalType": "bool",
              "name": "available",
              "type": "bool"
            },
            {
              "internalType": "address[]",
              "name": "pastBuyers",
              "type": "address[]"
            }
          ],
          "internalType": "struct ThreeLancer.Service[]",
          "name": "_services",
          "type": "tuple[]"
        }
      ],
      "name": "createServices",
      "outputs": [
        {
          "internalType": "uint256",
          "name": "",
          "type": "uint256"
        }
      ],
      "stateMutability": "nonpayable",
      "type": "function"
    },
    {
      "inputs": [
        {
          "internalType": "address",
          "name": "",
          "type": "address"
        },
        {
          "internalType": "uint256",
          "name": "",
          "type": "uint256"
        }
      ],
      "name": "currency",
      "outputs": [
        {
          "internalType": "uint256",
          "name": "serviceId",
          "type": "uint256"
        },
        {
          "internalType": "bool",
          "name": "done",
          "type": "bool"
        }
      ],
      "stateMutability": "view",
      "type": "function"
    },
    {
      "inputs": [
        {
          "internalType": "uint256",
          "name": "_id",
          "type": "uint256"
        }
      ],
      "name": "deAvailable",
      "outputs": [],
      "stateMutability": "nonpayable",
      "type": "function"
    },
    {
      "inputs": [],
      "name": "deployer",
      "outputs": [
        {
          "internalType": "address",
          "name": "",
          "type": "address"
        }
      ],
      "stateMutability": "view",
      "type": "function"
    },
    {
      "inputs": [],
      "name": "everyPurchasedData",
      "outputs": [
        {
          "components": [
            {
              "internalType": "uint256",
              "name": "id",
              "type": "uint256"
            },
            {
              "internalType": "uint256",
              "name": "serviceId",
              "type": "uint256"
            },
            {
              "internalType": "address",
              "name": "buyer",
              "type": "address"
            },
            {
              "internalType": "bool",
              "name": "delivered",
              "type": "bool"
            }
          ],
          "internalType": "struct ThreeLancer.Purchased[]",
          "name": "",
          "type": "tuple[]"
        }
      ],
      "stateMutability": "view",
      "type": "function"
    },
    {
      "inputs": [
        {
          "internalType": "address",
          "name": "_address",
          "type": "address"
        }
      ],
      "name": "getOkayIds",
      "outputs": [
        {
          "internalType": "uint256[]",
          "name": "",
          "type": "uint256[]"
        }
      ],
      "stateMutability": "view",
      "type": "function"
    },
    {
      "inputs": [
        {
          "internalType": "uint256",
          "name": "_id",
          "type": "uint256"
        }
      ],
      "name": "getServiceBuyerRecords",
      "outputs": [
        {
          "internalType": "address[]",
          "name": "",
          "type": "address[]"
        }
      ],
      "stateMutability": "view",
      "type": "function"
    },
    {
      "inputs": [
        {
          "internalType": "address",
          "name": "",
          "type": "address"
        }
      ],
      "name": "isRegistered",
      "outputs": [
        {
          "internalType": "bool",
          "name": "",
          "type": "bool"
        }
      ],
      "stateMutability": "view",
      "type": "function"
    },
    {
      "inputs": [
        {
          "internalType": "address",
          "name": "",
          "type": "address"
        },
        {
          "internalType": "uint256",
          "name": "",
          "type": "uint256"
        }
      ],
      "name": "okayServiceIds",
      "outputs": [
        {
          "internalType": "uint256",
          "name": "",
          "type": "uint256"
        }
      ],
      "stateMutability": "view",
      "type": "function"
    },
    {
      "inputs": [
        {
          "internalType": "uint256",
          "name": "_serviceId",
          "type": "uint256"
        },
        {
          "internalType": "uint256",
          "name": "_recordId",
          "type": "uint256"
        },
        {
          "internalType": "uint256",
          "name": "_sequence",
          "type": "uint256"
        }
      ],
      "name": "paySecondHalfAllDone",
      "outputs": [],
      "stateMutability": "payable",
      "type": "function"
    },
    {
      "inputs": [
        {
          "internalType": "uint256",
          "name": "",
          "type": "uint256"
        }
      ],
      "name": "records",
      "outputs": [
        {
          "internalType": "uint256",
          "name": "id",
          "type": "uint256"
        },
        {
          "internalType": "uint256",
          "name": "serviceId",
          "type": "uint256"
        },
        {
          "internalType": "address",
          "name": "buyer",
          "type": "address"
        },
        {
          "internalType": "bool",
          "name": "delivered",
          "type": "bool"
        }
      ],
      "stateMutability": "view",
      "type": "function"
    },
    {
      "inputs": [],
      "name": "serviceAmount",
      "outputs": [
        {
          "internalType": "uint256",
          "name": "",
          "type": "uint256"
        }
      ],
      "stateMutability": "view",
      "type": "function"
    },
    {
      "inputs": [
        {
          "internalType": "uint256",
          "name": "",
          "type": "uint256"
        }
      ],
      "name": "services",
      "outputs": [
        {
          "internalType": "string",
          "name": "name",
          "type": "string"
        },
        {
          "internalType": "uint256",
          "name": "id",
          "type": "uint256"
        },
        {
          "internalType": "string",
          "name": "description",
          "type": "string"
        },
        {
          "internalType": "uint256",
          "name": "fee",
          "type": "uint256"
        },
        {
          "internalType": "uint256",
          "name": "intervalInDays",
          "type": "uint256"
        },
        {
          "internalType": "string",
          "name": "category",
          "type": "string"
        },
        {
          "internalType": "bool",
          "name": "available",
          "type": "bool"
        }
      ],
      "stateMutability": "view",
      "type": "function"
    },
    {
      "inputs": [],
      "name": "tradeAmount",
      "outputs": [
        {
          "internalType": "uint256",
          "name": "",
          "type": "uint256"
        }
      ],
      "stateMutability": "view",
      "type": "function"
    },
    {
      "inputs": [
        {
          "internalType": "address",
          "name": "_address",
          "type": "address"
        },
        {
          "internalType": "uint256",
          "name": "_id",
          "type": "uint256"
        }
      ],
      "name": "updateCurrency",
      "outputs": [],
      "stateMutability": "nonpayable",
      "type": "function"
    },
    {
      "inputs": [
        {
          "internalType": "address",
          "name": "",
          "type": "address"
        }
      ],
      "name": "verified",
      "outputs": [
        {
          "internalType": "bool",
          "name": "",
          "type": "bool"
        }
      ],
      "stateMutability": "view",
      "type": "function"
    },
    {
      "inputs": [
        {
          "internalType": "address",
          "name": "_address",
          "type": "address"
        },
        {
          "internalType": "uint256[]",
          "name": "_ids",
          "type": "uint256[]"
        }
      ],
      "name": "verifyAnAddress",
      "outputs": [],
      "stateMutability": "nonpayable",
      "type": "function"
    }
  ],
  "bytecode": "0x608060405234801561001057600080fd5b50600080546001600160a01b0319163317905561266a806100326000396000f3fe60806040526004361061014b5760003560e01c80639ce07c28116100b6578063c3c5a5471161006f578063c3c5a54714610451578063cdfec49c14610481578063d2a57cf4146104a1578063d39254b3146104b6578063d5f39488146104c9578063e3ca2d651461050157600080fd5b80639ce07c281461039b578063a9d068f0146103b0578063b9e97d20146103d0578063bbcc62f7146103e6578063c22c4f43146103fc578063c2cd8a5a1461042f57600080fd5b806359c861cf1161010857806359c861cf146102d85780635fd13a21146102eb5780636e6d9f211461030d5780637b170ac01461034557806382e5e39714610365578063936b7a711461038557600080fd5b806303ca94c31461015057806305f2de08146101865780630db065f4146101b457806334461067146101f4578063451e761b14610276578063509ff69b146102a3575b600080fd5b34801561015c57600080fd5b5061017061016b366004611d42565b610521565b60405161017d9190611d64565b60405180910390f35b34801561019257600080fd5b506101a66101a1366004611f2f565b61058d565b60405190815260200161017d565b3480156101c057600080fd5b506101e46101cf366004611d42565b60026020526000908152604090205460ff1681565b604051901515815260200161017d565b34801561020057600080fd5b5061024561020f3660046120b8565b6005602052600090815260409020805460018201546002909201549091906001600160a01b03811690600160a01b900460ff1684565b60405161017d949392919093845260208401929092526001600160a01b031660408301521515606082015260800190565b34801561028257600080fd5b506102966102913660046120b8565b6106df565b60405161017d9190612115565b3480156102af57600080fd5b506102c36102be366004612128565b61074e565b6040805192835290151560208301520161017d565b6101a66102e63660046120b8565b61078d565b3480156102f757600080fd5b50610300610a26565b60405161017d9190612198565b34801561031957600080fd5b506103436103283660046120b8565b6000908152600460205260409020600601805460ff19169055565b005b34801561035157600080fd5b5061034361036036600461228b565b610d57565b34801561037157600080fd5b50610343610380366004612128565b610e51565b34801561039157600080fd5b506101a660095481565b3480156103a757600080fd5b506101a6610ed1565b3480156103bc57600080fd5b506101a66103cb366004611d42565b610f88565b3480156103dc57600080fd5b506101a660075481565b3480156103f257600080fd5b506101a660085481565b34801561040857600080fd5b5061041c6104173660046120b8565b6110af565b60405161017d979695949392919061232f565b34801561043b57600080fd5b50610444611284565b60405161017d9190612391565b34801561045d57600080fd5b506101e461046c366004611d42565b60036020526000908152604090205460ff1681565b34801561048d57600080fd5b506101a661049c366004612128565b61138b565b3480156104ad57600080fd5b506103006113bc565b6103436104c4366004612400565b61178c565b3480156104d557600080fd5b506000546104e9906001600160a01b031681565b6040516001600160a01b03909116815260200161017d565b34801561050d57600080fd5b5061034361051c36600461242c565b611c1c565b6001600160a01b038116600090815260016020908152604080832080548251818502810185019093528083526060949383018282801561058057602002820191906000526020600020905b81548152602001906001019080831161056c575b5093979650505050505050565b600080546001600160a01b031633146105c75760405162461bcd60e51b815260206004820152600060248201526044015b60405180910390fd5b60005b82518110156106c95760008382815181106105e7576105e761244e565b6020026020010151905080600460006007548152602001908152602001600020600082015181600001908161061c91906124e6565b50602082015160018201556040820151600282019061063b90826124e6565b50606082015160038201556080820151600482015560a0820151600582019061066490826124e6565b5060c082015160068201805460ff191691151591909117905560e08201518051610698916007840191602090910190611c65565b509050506001600760008282546106af91906125bc565b909155508291506106c19050816125cf565b9150506105ca565b5081516007546106d991906125e8565b92915050565b60008181526004602090815260409182902060070180548351818402810184019094528084526060939283018282801561074257602002820191906000526020600020905b81546001600160a01b03168152600190910190602001808311610724575b50505050509050919050565b6006602052816000526040600020818154811061076a57600080fd5b60009182526020909120600290910201805460019091015490925060ff16905082565b3360009081526003602052604081205460ff1615156001146107cb5760405162461bcd60e51b815260206004820152600060248201526044016105be565b3360009081526002602052604090205460ff1615156001146108095760405162461bcd60e51b815260206004820152600060248201526044016105be565b60008061081533610521565b905060005b815181101561085e57848282815181106108365761083661244e565b60200260200101510361084c576001925061085e565b80610856816125cf565b91505061081a565b5060018215151461088b5760405162461bcd60e51b815260206004820152600060248201526044016105be565b6000848152600460205260409020600681015460ff1615156001146108cc5760405162461bcd60e51b815260206004820152600060248201526044016105be565b60088054600081815260056020908152604080832093845580518082018252600187810180548352828501868152338088526006875294872080548085018255908852868820855160029283029091019081559151918401805460ff19169215159290921790915560078a018054808501825590885295872090950180546001600160a01b0319168517905593860180546001600160a81b0319169093179092559154818501558454939491939092906109879084906125bc565b9091555050600383015460649061099f9060326125fb565b6109a99190612612565b34146109d15760405162461bcd60e51b815260206004820152600060248201526044016105be565b600080546040516001600160a01b03909116913480156108fc02929091818181858888f19350505050158015610a0b573d6000803e3d6000fd5b506001600854610a1b91906125e8565b979650505050505050565b6000546060906001600160a01b03163314610a5d5760405162461bcd60e51b815260206004820152600060248201526044016105be565b600060075467ffffffffffffffff811115610a7a57610a7a611da8565b604051908082528060200260200182016040528015610ab357816020015b610aa0611cca565b815260200190600190039081610a985790505b50905060005b600754811015610d515760008181526004602052604080822081516101008101909252805482908290610aeb90612464565b80601f0160208091040260200160405190810160405280929190818152602001828054610b1790612464565b8015610b645780601f10610b3957610100808354040283529160200191610b64565b820191906000526020600020905b815481529060010190602001808311610b4757829003601f168201915b5050505050815260200160018201548152602001600282018054610b8790612464565b80601f0160208091040260200160405190810160405280929190818152602001828054610bb390612464565b8015610c005780601f10610bd557610100808354040283529160200191610c00565b820191906000526020600020905b815481529060010190602001808311610be357829003601f168201915b505050505081526020016003820154815260200160048201548152602001600582018054610c2d90612464565b80601f0160208091040260200160405190810160405280929190818152602001828054610c5990612464565b8015610ca65780601f10610c7b57610100808354040283529160200191610ca6565b820191906000526020600020905b815481529060010190602001808311610c8957829003601f168201915b5050509183525050600682015460ff1615156020808301919091526007830180546040805182850281018501825282815294019392830182828015610d1457602002820191906000526020600020905b81546001600160a01b03168152600190910190602001808311610cf6575b505050505081525050905080838381518110610d3257610d3261244e565b6020026020010181905250508080610d49906125cf565b915050610ab9565b50919050565b6000546001600160a01b03163314610d8b5760405162461bcd60e51b815260206004820152600060248201526044016105be565b6000546001600160a01b03808416911603610dc25760405162461bcd60e51b815260206004820152600060248201526044016105be565b6001600160a01b0382166000908152600260205260408120805460ff191660011790555b8151811015610e4c576001600160a01b03831660009081526001602052604090208251839083908110610e1b57610e1b61244e565b6020908102919091018101518254600181018455600093845291909220015580610e44816125cf565b915050610de6565b505050565b336001600160a01b03831614610e835760405162461bcd60e51b815260206004820152600060248201526044016105be565b6001600160a01b0382166000908152600660205260408120805483908110610ead57610ead61244e565b6000918252602090912060016002909202018101805460ff19169091179055505050565b3360009081526003602052604081205460ff1615610f0b5760405162461bcd60e51b815260206004820152600060248201526044016105be565b6000546001600160a01b03163303610f3f5760405162461bcd60e51b815260206004820152600060248201526044016105be565b336000908152600360205260408120805460ff191660019081179091556009805491929091610f6f9084906125bc565b9091555050600954610f83906001906125e8565b905090565b6000336001600160a01b0383161480610fab57506000546001600160a01b031633145b610fd15760405162461bcd60e51b815260206004820152600060248201526044016105be565b6001600160a01b038216600090815260066020908152604080832080548251818502810185019093528083529192909190849084015b8282101561104b57600084815260209081902060408051808201909152600285029091018054825260019081015460ff161515828401529083529092019101611007565b5050505090506000805b82518110156110a7578281815181106110705761107061244e565b60200260200101516020015115156000151503611095576110926001836125bc565b91505b8061109f816125cf565b915050611055565b509392505050565b6004602052600090815260409020805481906110ca90612464565b80601f01602080910402602001604051908101604052809291908181526020018280546110f690612464565b80156111435780601f1061111857610100808354040283529160200191611143565b820191906000526020600020905b81548152906001019060200180831161112657829003601f168201915b50505050509080600101549080600201805461115e90612464565b80601f016020809104026020016040519081016040528092919081815260200182805461118a90612464565b80156111d75780601f106111ac576101008083540402835291602001916111d7565b820191906000526020600020905b8154815290600101906020018083116111ba57829003601f168201915b5050505050908060030154908060040154908060050180546111f890612464565b80601f016020809104026020016040519081016040528092919081815260200182805461122490612464565b80156112715780601f1061124657610100808354040283529160200191611271565b820191906000526020600020905b81548152906001019060200180831161125457829003601f168201915b5050506006909301549192505060ff1687565b6060600060085467ffffffffffffffff8111156112a3576112a3611da8565b6040519080825280602002602001820160405280156112f557816020015b6040805160808101825260008082526020808301829052928201819052606082015282526000199092019101816112c15790505b50905060005b600854811015610d5157600081815260056020908152604091829020825160808101845281548152600182015492810192909252600201546001600160a01b03811692820192909252600160a01b90910460ff16151560608201528251819084908490811061136c5761136c61244e565b6020026020010181905250508080611383906125cf565b9150506112fb565b600160205281600052604060002081815481106113a757600080fd5b90600052602060002001600091509150505481565b6060600060075467ffffffffffffffff8111156113db576113db611da8565b60405190808252806020026020018201604052801561141457816020015b611401611cca565b8152602001906001900390816113f95790505b5090506000805b6007548110156116d0576000818152600460205260408082208151610100810190925280548290829061144d90612464565b80601f016020809104026020016040519081016040528092919081815260200182805461147990612464565b80156114c65780601f1061149b576101008083540402835291602001916114c6565b820191906000526020600020905b8154815290600101906020018083116114a957829003601f168201915b50505050508152602001600182015481526020016002820180546114e990612464565b80601f016020809104026020016040519081016040528092919081815260200182805461151590612464565b80156115625780601f1061153757610100808354040283529160200191611562565b820191906000526020600020905b81548152906001019060200180831161154557829003601f168201915b50505050508152602001600382015481526020016004820154815260200160058201805461158f90612464565b80601f01602080910402602001604051908101604052809291908181526020018280546115bb90612464565b80156116085780601f106115dd57610100808354040283529160200191611608565b820191906000526020600020905b8154815290600101906020018083116115eb57829003601f168201915b5050509183525050600682015460ff161515602080830191909152600783018054604080518285028101850182528281529401939283018282801561167657602002820191906000526020600020905b81546001600160a01b03168152600190910190602001808311611658575b50505050508152505090508060c00151151560011515036116bd57808483815181106116a4576116a461244e565b60209081029190910101526116ba6001846125bc565b92505b50806116c8816125cf565b91505061141b565b5060075481036116e05750919050565b60008167ffffffffffffffff8111156116fb576116fb611da8565b60405190808252806020026020018201604052801561173457816020015b611721611cca565b8152602001906001900390816117195790505b50905060005b828110156110a7578381815181106117545761175461244e565b602002602001015182828151811061176e5761176e61244e565b60200260200101819052508080611784906125cf565b91505061173a565b3360009081526003602052604090205460ff1615156001146117ca5760405162461bcd60e51b815260206004820152600060248201526044016105be565b600083815260046020526040808220815161010081019092528054829082906117f290612464565b80601f016020809104026020016040519081016040528092919081815260200182805461181e90612464565b801561186b5780601f106118405761010080835404028352916020019161186b565b820191906000526020600020905b81548152906001019060200180831161184e57829003601f168201915b505050505081526020016001820154815260200160028201805461188e90612464565b80601f01602080910402602001604051908101604052809291908181526020018280546118ba90612464565b80156119075780601f106118dc57610100808354040283529160200191611907565b820191906000526020600020905b8154815290600101906020018083116118ea57829003601f168201915b50505050508152602001600382015481526020016004820154815260200160058201805461193490612464565b80601f016020809104026020016040519081016040528092919081815260200182805461196090612464565b80156119ad5780601f10611982576101008083540402835291602001916119ad565b820191906000526020600020905b81548152906001019060200180831161199057829003601f168201915b5050509183525050600682015460ff1615156020808301919091526007830180546040805182850281018501825282815294019392830182828015611a1b57602002820191906000526020600020905b81546001600160a01b031681526001909101906020018083116119fd575b50505050508152505090506000805b8260e0015151811015611a88578260e001518181518110611a4d57611a4d61244e565b60200260200101516001600160a01b0316336001600160a01b031603611a765760019150611a88565b80611a80816125cf565b915050611a2a565b50600181151514611ab55760405162461bcd60e51b815260206004820152600060248201526044016105be565b6000848152600560209081526040909120600181015491840151909114611af85760405162461bcd60e51b815260206004820152600060248201526044016105be565b60028101546001600160a01b03163314611b2e5760405162461bcd60e51b815260206004820152600060248201526044016105be565b6002810154600160a01b900460ff1615611b4757600080fd5b60028101805460ff60a01b1916600160a01b1790556060830151606490611b6f9060326125fb565b611b799190612612565b3414611ba15760405162461bcd60e51b815260206004820152600060248201526044016105be565b600080546040516001600160a01b03909116913480156108fc02929091818181858888f19350505050158015611bdb573d6000803e3d6000fd5b50611be63385610e51565b6000611bf133610f88565b905060018111611c1357336000908152600260205260409020805460ff191690555b50505050505050565b6000546001600160a01b03163314611c505760405162461bcd60e51b815260206004820152600060248201526044016105be565b60009182526004602052604090912060030155565b828054828255906000526020600020908101928215611cba579160200282015b82811115611cba57825182546001600160a01b0319166001600160a01b03909116178255602090920191600190910190611c85565b50611cc6929150611d11565b5090565b604051806101000160405280606081526020016000815260200160608152602001600081526020016000815260200160608152602001600015158152602001606081525090565b5b80821115611cc65760008155600101611d12565b80356001600160a01b0381168114611d3d57600080fd5b919050565b600060208284031215611d5457600080fd5b611d5d82611d26565b9392505050565b6020808252825182820181905260009190848201906040850190845b81811015611d9c57835183529284019291840191600101611d80565b50909695505050505050565b634e487b7160e01b600052604160045260246000fd5b604051610100810167ffffffffffffffff81118282101715611de257611de2611da8565b60405290565b604051601f8201601f1916810167ffffffffffffffff81118282101715611e1157611e11611da8565b604052919050565b600067ffffffffffffffff821115611e3357611e33611da8565b5060051b60200190565b600082601f830112611e4e57600080fd5b813567ffffffffffffffff811115611e6857611e68611da8565b611e7b601f8201601f1916602001611de8565b818152846020838601011115611e9057600080fd5b816020850160208301376000918101602001919091529392505050565b80358015158114611d3d57600080fd5b600082601f830112611ece57600080fd5b81356020611ee3611ede83611e19565b611de8565b82815260059290921b84018101918181019086841115611f0257600080fd5b8286015b84811015611f2457611f1781611d26565b8352918301918301611f06565b509695505050505050565b60006020808385031215611f4257600080fd5b823567ffffffffffffffff80821115611f5a57600080fd5b818501915085601f830112611f6e57600080fd5b8135611f7c611ede82611e19565b81815260059190911b83018401908481019088831115611f9b57600080fd5b8585015b838110156120ab57803585811115611fb657600080fd5b8601610100818c03601f1901811315611fce57600080fd5b611fd6611dbe565b8983013588811115611fe757600080fd5b611ff58e8c83870101611e3d565b82525060408301358a82015260608301358881111561201357600080fd5b6120218e8c83870101611e3d565b6040830152506080830135606082015260a0830135608082015260c0808401358981111561204f5760008081fd5b61205d8f8d83880101611e3d565b60a08401525060e0612070818601611ead565b8383015292840135928984111561208957600091508182fd5b6120978f8d86880101611ebd565b908301525085525050918601918601611f9f565b5098975050505050505050565b6000602082840312156120ca57600080fd5b5035919050565b600081518084526020808501945080840160005b8381101561210a5781516001600160a01b0316875295820195908201906001016120e5565b509495945050505050565b602081526000611d5d60208301846120d1565b6000806040838503121561213b57600080fd5b61214483611d26565b946020939093013593505050565b6000815180845260005b818110156121785760208185018101518683018201520161215c565b506000602082860101526020601f19601f83011685010191505092915050565b60006020808301818452808551808352604092508286019150828160051b87010184880160005b8381101561227d57603f19898403018552815161010081518186526121e682870182612152565b915050888201518986015287820151858203898701526122068282612152565b9150506060808301518187015250608080830151818701525060a080830151868303828801526122368382612152565b9250505060c08083015161224d8288018215159052565b505060e0808301519250858203818701525061226981836120d1565b9689019694505050908601906001016121bf565b509098975050505050505050565b6000806040838503121561229e57600080fd5b6122a783611d26565b915060208084013567ffffffffffffffff8111156122c457600080fd5b8401601f810186136122d557600080fd5b80356122e3611ede82611e19565b81815260059190911b8201830190838101908883111561230257600080fd5b928401925b8284101561232057833582529284019290840190612307565b80955050505050509250929050565b60e08152600061234260e083018a612152565b886020840152828103604084015261235a8189612152565b905086606084015285608084015282810360a084015261237a8186612152565b91505082151560c083015298975050505050505050565b602080825282518282018190526000919060409081850190868401855b828110156123f3578151805185528681015187860152858101516001600160a01b031686860152606090810151151590850152608090930192908501906001016123ae565b5091979650505050505050565b60008060006060848603121561241557600080fd5b505081359360208301359350604090920135919050565b6000806040838503121561243f57600080fd5b50508035926020909101359150565b634e487b7160e01b600052603260045260246000fd5b600181811c9082168061247857607f821691505b602082108103610d5157634e487b7160e01b600052602260045260246000fd5b601f821115610e4c57600081815260208120601f850160051c810160208610156124bf5750805b601f850160051c820191505b818110156124de578281556001016124cb565b505050505050565b815167ffffffffffffffff81111561250057612500611da8565b6125148161250e8454612464565b84612498565b602080601f83116001811461254957600084156125315750858301515b600019600386901b1c1916600185901b1785556124de565b600085815260208120601f198616915b8281101561257857888601518255948401946001909101908401612559565b50858210156125965787850151600019600388901b60f8161c191681555b5050505050600190811b01905550565b634e487b7160e01b600052601160045260246000fd5b808201808211156106d9576106d96125a6565b6000600182016125e1576125e16125a6565b5060010190565b818103818111156106d9576106d96125a6565b80820281158282048414176106d9576106d96125a6565b60008261262f57634e487b7160e01b600052601260045260246000fd5b50049056fea26469706673582212202bf5d1d44963ff449f8e95b3d48eb09090b6814f6f9c00a46230bc6c3ac69e3764736f6c63430008110033",
  "linkReferences": {},
  "deployedLinkReferences": {}
}